:030000000200807B
:0C008000787FE4F6D8FD75810902000EBF
:100070003F065B4F666D7D077F6F777C395E7971D8
:10000E00E4F508F509758901758C3C758AB0D2AF97
:10001E00D2A9D28CD2A77580EAC2A7D2A675803F8C
:10002E00C2A6E509B404FBE4F5090508E508B41019
:10003E0003E4F508D290D2A6E50890007093F580FF
:04004E00C2A680DEE8
:10005200D3EF9400EE940040147D6E7C00ED1D7091
:0D006200011CED4C70F7EF1F70E61E80E3EF
:01006F00226E
:03000B0002008C64
:09008C00758C3C758AB00509323F
:00000001FF
