:0300000002007685
:0C007600787FE4F6D8FD758108020003D5
:100062003F065B4F666D7D077F6F777C395E7971E6
:040072003679383F64
:040040007F0A7E00B5
:10004400D3EF9400EE940040147D6E7C00ED1D709F
:0D005400011CED4C70F7EF1F70E61E80E3FD
:01006100227C
:10000300D2A77580FEC2A775B0FF12004020B41DB1
:1000130012004020B419C2900508E508B40A03E4AD
:10002300F50830B4FD12004020B40480FBD290D216
:0D003300A6E50890006293F580C2A680CD7E
:00000001FF
