:0300000002000EED
:0C000E00787FE4F6D8FD7581150201EE44
:100205003F065B4F666D7D077F6F777C395E797141
:0601CA00C2A77F017E00C8
:1001D000D3EF9400EE940040147D6E7C00ED1D7012
:0D01E000011CED4C70F7EF1F70E61E80E370
:0101ED0022EF
:10001E00AA05D2A6EF90020593F580C2A67580FFC1
:10002E00D2A77580FE1201CAD2A6EA93F580C2A6A7
:10003E007580FFD2A77580FD1201CAD2A6EB93F58B
:10004E0080C2A67580FFD2A77580FB1201CAD2A608
:10005E00E51393F580C2A67580FFD2A77580F712BF
:10006E0001CAD2A6E51493F580C2A67580FFD2A769
:10007E007580EF1201CAD2A6E51593F580C2A6755A
:10008E0080FFD2A77580DFC2A77F017E000201D05C
:03001B0002009E42
:10009E00C0E0C0F0C0D075D000C000C004C005C024
:1000AE0006C007758D3C758BB00509E509640270B5
:1000BE004CF509E50F150F7002150EAE0EAF0F7C45
:1000CE00007D6412011C8F0AAE0EAF0F7C007D64A2
:1000DE0012011C7E007F0ACFCDCFCECCCE12011CDA
:1000EE008F0CAE0EAF0F7C007D0A12011C8D0DE53C
:1000FE000FB48E09E50EB40104C28CC28ED007D0A7
:0E010E0006D005D004D000D0D0D0F0D0E03222
:03000B000201717E
:10017100C0E0C0D075D000C000C007758C3C758A46
:10018100B00508E508B40A12750801AF0B7801EF54
:1001910008800123D8FDF50BF590D007D000D0D011
:0301A100D0E03279
:1001A400750E01750FB0750BFE850B907589117571
:1001B4008C3C758AB0758D3C758BB0D2AFD2A9D208
:0601C400ABD28CD28E22AA
:1001EE001201A4850A13850C14850D157B077D0657
:0701FE007F0712001E80ECD8
:10011C00BC000BBE0029EF8DF084FFADF022E4CCC7
:10012C00F875F008EF2FFFEE33FEEC33FCEE9DEC90
:10013C00984005FCEE9DFE0FD5F0E9E4CEFD22EDD6
:10014C00F8F5F0EE8420D21CFEADF075F008EF2F20
:10015C00FFED33FD4007985006D5F0F222C398FD11
:05016C000FD5F0EA22AE
:00000001FF
